{
  "contractName": "Main",
  "abi": [
    {
      "inputs": [],
      "stateMutability": "nonpayable",
      "type": "constructor"
    },
    {
      "inputs": [],
      "name": "admin",
      "outputs": [
        {
          "internalType": "address",
          "name": "",
          "type": "address"
        }
      ],
      "stateMutability": "view",
      "type": "function",
      "constant": true
    },
    {
      "inputs": [
        {
          "internalType": "uint256",
          "name": "",
          "type": "uint256"
        }
      ],
      "name": "iParticipants",
      "outputs": [
        {
          "internalType": "address",
          "name": "",
          "type": "address"
        }
      ],
      "stateMutability": "view",
      "type": "function",
      "constant": true
    },
    {
      "inputs": [],
      "name": "nParticipants",
      "outputs": [
        {
          "internalType": "uint8",
          "name": "",
          "type": "uint8"
        }
      ],
      "stateMutability": "view",
      "type": "function",
      "constant": true
    },
    {
      "inputs": [],
      "name": "nSessions",
      "outputs": [
        {
          "internalType": "uint8",
          "name": "",
          "type": "uint8"
        }
      ],
      "stateMutability": "view",
      "type": "function",
      "constant": true
    },
    {
      "inputs": [
        {
          "internalType": "address",
          "name": "",
          "type": "address"
        }
      ],
      "name": "participants",
      "outputs": [
        {
          "internalType": "address",
          "name": "account",
          "type": "address"
        },
        {
          "internalType": "string",
          "name": "fullname",
          "type": "string"
        },
        {
          "internalType": "string",
          "name": "email",
          "type": "string"
        },
        {
          "internalType": "uint8",
          "name": "nSessions",
          "type": "uint8"
        },
        {
          "internalType": "uint256",
          "name": "deviation",
          "type": "uint256"
        }
      ],
      "stateMutability": "view",
      "type": "function",
      "constant": true
    },
    {
      "inputs": [
        {
          "internalType": "uint256",
          "name": "",
          "type": "uint256"
        }
      ],
      "name": "sessions",
      "outputs": [
        {
          "internalType": "address",
          "name": "",
          "type": "address"
        }
      ],
      "stateMutability": "view",
      "type": "function",
      "constant": true
    },
    {
      "inputs": [
        {
          "internalType": "address",
          "name": "session",
          "type": "address"
        }
      ],
      "name": "addSession",
      "outputs": [],
      "stateMutability": "nonpayable",
      "type": "function"
    },
    {
      "inputs": [
        {
          "internalType": "string",
          "name": "_fullname",
          "type": "string"
        },
        {
          "internalType": "string",
          "name": "_email",
          "type": "string"
        }
      ],
      "name": "register",
      "outputs": [
        {
          "internalType": "string",
          "name": "",
          "type": "string"
        },
        {
          "internalType": "string",
          "name": "",
          "type": "string"
        }
      ],
      "stateMutability": "nonpayable",
      "type": "function"
    },
    {
      "inputs": [
        {
          "internalType": "address",
          "name": "addr",
          "type": "address"
        }
      ],
      "name": "getDeviation",
      "outputs": [
        {
          "internalType": "uint256",
          "name": "deviation",
          "type": "uint256"
        }
      ],
      "stateMutability": "view",
      "type": "function",
      "constant": true
    },
    {
      "inputs": [
        {
          "internalType": "address",
          "name": "participantAddr",
          "type": "address"
        },
        {
          "internalType": "uint256",
          "name": "currentPrice",
          "type": "uint256"
        },
        {
          "internalType": "uint256",
          "name": "finalPrice",
          "type": "uint256"
        }
      ],
      "name": "calculateDeviation",
      "outputs": [],
      "stateMutability": "nonpayable",
      "type": "function"
    },
    {
      "inputs": [
        {
          "internalType": "string",
          "name": "_fullname",
          "type": "string"
        },
        {
          "internalType": "string",
          "name": "_email",
          "type": "string"
        }
      ],
      "name": "updateUserProfile",
      "outputs": [],
      "stateMutability": "nonpayable",
      "type": "function"
    }
  ],
  "bytecode": "0x60806040526000600360006101000a81548160ff021916908360ff16021790555034801561002c57600080fd5b50336000806101000a81548173ffffffffffffffffffffffffffffffffffffffff021916908373ffffffffffffffffffffffffffffffffffffffff1602179055506111aa8061007c6000396000f3fe608060405234801561001057600080fd5b50600436106100a95760003560e01c806383c4b7a31161007157806383c4b7a314610169578063a33a08b914610199578063a3b9c9e5146101c9578063b63bc3b4146101f9578063f390dd8614610217578063f851a44014610233576100a9565b806309e69ede146100ae5780633ffbd47f146100e257806340e0697914610113578063454eed7d1461012f5780634ff61ad91461014d575b600080fd5b6100c860048036038101906100c39190610b1b565b610251565b6040516100d9959493929190610cc1565b60405180910390f35b6100fc60048036038101906100f79190610b9b565b6103c4565b60405161010a929190610d22565b60405180910390f35b61012d60048036038101906101289190610b9b565b61059f565b005b610137610651565b6040516101449190610d74565b60405180910390f35b61016760048036038101906101629190610b48565b610664565b005b610183600480360381019061017e9190610c13565b61083f565b6040516101909190610ca6565b60405180910390f35b6101b360048036038101906101ae9190610b1b565b61087e565b6040516101c09190610d59565b60405180910390f35b6101e360048036038101906101de9190610c13565b6108ca565b6040516101f09190610ca6565b60405180910390f35b610201610909565b60405161020e9190610d74565b60405180910390f35b610231600480360381019061022c9190610b1b565b61091c565b005b61023b6109ba565b6040516102489190610ca6565b60405180910390f35b60026020528060005260406000206000915090508060000160009054906101000a900473ffffffffffffffffffffffffffffffffffffffff169080600101805461029a90610fd8565b80601f01602080910402602001604051908101604052809291908181526020018280546102c690610fd8565b80156103135780601f106102e857610100808354040283529160200191610313565b820191906000526020600020905b8154815290600101906020018083116102f657829003601f168201915b50505050509080600201805461032890610fd8565b80601f016020809104026020016040519081016040528092919081815260200182805461035490610fd8565b80156103a15780601f10610376576101008083540402835291602001916103a1565b820191906000526020600020905b81548152906001019060200180831161038457829003601f168201915b5050505050908060030160009054906101000a900460ff16908060040154905085565b6060806040518060a001604052803373ffffffffffffffffffffffffffffffffffffffff168152602001858152602001848152602001600060ff1681526020016000815250600260003373ffffffffffffffffffffffffffffffffffffffff1673ffffffffffffffffffffffffffffffffffffffff16815260200190815260200160002060008201518160000160006101000a81548173ffffffffffffffffffffffffffffffffffffffff021916908373ffffffffffffffffffffffffffffffffffffffff16021790555060208201518160010190805190602001906104ab9291906109de565b5060408201518160020190805190602001906104c89291906109de565b5060608201518160030160006101000a81548160ff021916908360ff160217905550608082015181600401559050506000601481819054906101000a900460ff16809291906105169061103b565b91906101000a81548160ff021916908360ff160217905550506001339080600181540180825580915050600190039060005260206000200160009091909190916101000a81548173ffffffffffffffffffffffffffffffffffffffff021916908373ffffffffffffffffffffffffffffffffffffffff1602179055508383915091509250929050565b80600260003373ffffffffffffffffffffffffffffffffffffffff1673ffffffffffffffffffffffffffffffffffffffff16815260200190815260200160002060020190805190602001906105f59291906109de565b5081600260003373ffffffffffffffffffffffffffffffffffffffff1673ffffffffffffffffffffffffffffffffffffffff168152602001908152602001600020600101908051906020019061064c9291906109de565b505050565b600360009054906101000a900460ff1681565b600082821161067e5781836106799190610f19565b61068b565b828261068a9190610f19565b5b905060008260648361069d9190610ebf565b6106a79190610e8e565b90506000600260008773ffffffffffffffffffffffffffffffffffffffff1673ffffffffffffffffffffffffffffffffffffffff1681526020019081526020016000206004015490506000600260008873ffffffffffffffffffffffffffffffffffffffff1673ffffffffffffffffffffffffffffffffffffffff16815260200190815260200160002060030160009054906101000a900460ff1690506001816107519190610e57565b60ff16838260ff16846107649190610ebf565b61076e9190610e01565b6107789190610e8e565b600260008973ffffffffffffffffffffffffffffffffffffffff1673ffffffffffffffffffffffffffffffffffffffff16815260200190815260200160002060040181905550600260008873ffffffffffffffffffffffffffffffffffffffff1673ffffffffffffffffffffffffffffffffffffffff168152602001908152602001600020600301600081819054906101000a900460ff168092919061081d9061103b565b91906101000a81548160ff021916908360ff1602179055505050505050505050565b6004818154811061084f57600080fd5b906000526020600020016000915054906101000a900473ffffffffffffffffffffffffffffffffffffffff1681565b6000600260008373ffffffffffffffffffffffffffffffffffffffff1673ffffffffffffffffffffffffffffffffffffffff168152602001908152602001600020600401549050919050565b600181815481106108da57600080fd5b906000526020600020016000915054906101000a900473ffffffffffffffffffffffffffffffffffffffff1681565b600060149054906101000a900460ff1681565b6003600081819054906101000a900460ff168092919061093b9061103b565b91906101000a81548160ff021916908360ff160217905550506004819080600181540180825580915050600190039060005260206000200160009091909190916101000a81548173ffffffffffffffffffffffffffffffffffffffff021916908373ffffffffffffffffffffffffffffffffffffffff16021790555050565b60008054906101000a900473ffffffffffffffffffffffffffffffffffffffff1681565b8280546109ea90610fd8565b90600052602060002090601f016020900481019282610a0c5760008555610a53565b82601f10610a2557805160ff1916838001178555610a53565b82800160010185558215610a53579182015b82811115610a52578251825591602001919060010190610a37565b5b509050610a609190610a64565b5090565b5b80821115610a7d576000816000905550600101610a65565b5090565b6000610a94610a8f84610db4565b610d8f565b905082815260208101848484011115610ab057610aaf611126565b5b610abb848285610f96565b509392505050565b600081359050610ad281611146565b92915050565b600082601f830112610aed57610aec611121565b5b8135610afd848260208601610a81565b91505092915050565b600081359050610b158161115d565b92915050565b600060208284031215610b3157610b30611130565b5b6000610b3f84828501610ac3565b91505092915050565b600080600060608486031215610b6157610b60611130565b5b6000610b6f86828701610ac3565b9350506020610b8086828701610b06565b9250506040610b9186828701610b06565b9150509250925092565b60008060408385031215610bb257610bb1611130565b5b600083013567ffffffffffffffff811115610bd057610bcf61112b565b5b610bdc85828601610ad8565b925050602083013567ffffffffffffffff811115610bfd57610bfc61112b565b5b610c0985828601610ad8565b9150509250929050565b600060208284031215610c2957610c28611130565b5b6000610c3784828501610b06565b91505092915050565b610c4981610f4d565b82525050565b6000610c5a82610de5565b610c648185610df0565b9350610c74818560208601610fa5565b610c7d81611135565b840191505092915050565b610c9181610f7f565b82525050565b610ca081610f89565b82525050565b6000602082019050610cbb6000830184610c40565b92915050565b600060a082019050610cd66000830188610c40565b8181036020830152610ce88187610c4f565b90508181036040830152610cfc8186610c4f565b9050610d0b6060830185610c97565b610d186080830184610c88565b9695505050505050565b60006040820190508181036000830152610d3c8185610c4f565b90508181036020830152610d508184610c4f565b90509392505050565b6000602082019050610d6e6000830184610c88565b92915050565b6000602082019050610d896000830184610c97565b92915050565b6000610d99610daa565b9050610da5828261100a565b919050565b6000604051905090565b600067ffffffffffffffff821115610dcf57610dce6110f2565b5b610dd882611135565b9050602081019050919050565b600081519050919050565b600082825260208201905092915050565b6000610e0c82610f7f565b9150610e1783610f7f565b9250827fffffffffffffffffffffffffffffffffffffffffffffffffffffffffffffffff03821115610e4c57610e4b611065565b5b828201905092915050565b6000610e6282610f89565b9150610e6d83610f89565b92508260ff03821115610e8357610e82611065565b5b828201905092915050565b6000610e9982610f7f565b9150610ea483610f7f565b925082610eb457610eb3611094565b5b828204905092915050565b6000610eca82610f7f565b9150610ed583610f7f565b9250817fffffffffffffffffffffffffffffffffffffffffffffffffffffffffffffffff0483118215151615610f0e57610f0d611065565b5b828202905092915050565b6000610f2482610f7f565b9150610f2f83610f7f565b925082821015610f4257610f41611065565b5b828203905092915050565b6000610f5882610f5f565b9050919050565b600073ffffffffffffffffffffffffffffffffffffffff82169050919050565b6000819050919050565b600060ff82169050919050565b82818337600083830152505050565b60005b83811015610fc3578082015181840152602081019050610fa8565b83811115610fd2576000848401525b50505050565b60006002820490506001821680610ff057607f821691505b60208210811415611004576110036110c3565b5b50919050565b61101382611135565b810181811067ffffffffffffffff82111715611032576110316110f2565b5b80604052505050565b600061104682610f89565b915060ff82141561105a57611059611065565b5b600182019050919050565b7f4e487b7100000000000000000000000000000000000000000000000000000000600052601160045260246000fd5b7f4e487b7100000000000000000000000000000000000000000000000000000000600052601260045260246000fd5b7f4e487b7100000000000000000000000000000000000000000000000000000000600052602260045260246000fd5b7f4e487b7100000000000000000000000000000000000000000000000000000000600052604160045260246000fd5b600080fd5b600080fd5b600080fd5b600080fd5b6000601f19601f8301169050919050565b61114f81610f4d565b811461115a57600080fd5b50565b61116681610f7f565b811461117157600080fd5b5056fea2646970667358221220b49c3711365bcd349d207b3abafbd7df7a6643926e66ef68fe85af573747602264736f6c63430008070033",
  "immutableReferences": {},
  "source": "// SPDX-License-Identifier: GPL-3.0\npragma solidity >=0.7.0 <0.9.0;\n\ncontract Main {\n    // Structure to hold details of Bidder\n    struct IParticipant {\n        address account;\n        string fullname;\n        string email;\n        uint8 nSessions;\n        uint256 deviation; // %\n    }\n\n    address public admin;\n\n    // TODO: Variables\n    uint8 public nParticipants;\n    address[] public iParticipants;\n    mapping(address => IParticipant) public participants;\n    uint8 public nSessions = 0;\n    address[] public sessions;\n\n    modifier onlyAdmin() {\n        require(msg.sender == admin);\n        _;\n    }\n\n    constructor() {\n        admin = msg.sender;\n    }\n\n    // Add a Session Contract address into Main Contract. Use to link Session with Main\n    function addSession(address session) public {\n        nSessions++;\n        sessions.push(session);\n    }\n\n    // TODO: Functions\n    function register(string memory _fullname, string memory _email)\n        public\n        returns (string memory, string memory)\n    {\n        participants[msg.sender] = IParticipant({\n            account: msg.sender,\n            fullname: _fullname,\n            email: _email,\n            nSessions: 0,\n            deviation: 0\n        });\n\n        nParticipants++;\n        iParticipants.push(msg.sender);\n\n        return (_fullname, _email);\n    }\n\n    function getDeviation(address addr)\n        external\n        view\n        returns (uint256 deviation)\n    {\n        return participants[addr].deviation;\n    }\n\n    function calculateDeviation(\n        address participantAddr,\n        uint256 currentPrice,\n        uint256 finalPrice\n    ) public {\n        uint256 overlapPrice = finalPrice > currentPrice\n            ? finalPrice - currentPrice\n            : currentPrice - finalPrice;\n        uint256 newDeviation = (overlapPrice * 100) / finalPrice;\n        uint256 currentDeviation = participants[participantAddr].deviation;\n        uint8 n = participants[participantAddr].nSessions;\n        participants[participantAddr].deviation =\n            ((currentDeviation * n) + newDeviation) /\n            (n + 1);\n        participants[participantAddr].nSessions++;\n    }\n\n    function updateUserProfile(string memory _fullname, string memory _email)\n        public\n    {\n        participants[msg.sender].email = _email;\n        participants[msg.sender].fullname = _fullname;\n    }\n}\n",
  "sourcePath": "/Users/minhphan/Desktop/FunixPricingChain/truffle/contracts/Main.sol",
  "compiler": {
    "name": "solc",
    "version": "0.8.7+commit.e28d00a7.Emscripten.clang"
  },
  "schemaVersion": "3.4.3",
  "updatedAt": "2022-03-31T17:13:58.800Z",
  "networkType": "ethereum",
  "devdoc": {
    "kind": "dev",
    "methods": {},
    "version": 1
  },
  "userdoc": {
    "kind": "user",
    "methods": {},
    "version": 1
  }
}