{
  "contractName": "MainSC",
  "abi": [
    {
      "inputs": [],
      "name": "admin",
      "outputs": [
        {
          "internalType": "address",
          "name": "",
          "type": "address"
        }
      ],
      "stateMutability": "view",
      "type": "function"
    },
    {
      "inputs": [
        {
          "internalType": "uint256",
          "name": "",
          "type": "uint256"
        }
      ],
      "name": "iParticipants",
      "outputs": [
        {
          "internalType": "address",
          "name": "",
          "type": "address"
        }
      ],
      "stateMutability": "view",
      "type": "function"
    },
    {
      "inputs": [],
      "name": "nParticipants",
      "outputs": [
        {
          "internalType": "uint8",
          "name": "",
          "type": "uint8"
        }
      ],
      "stateMutability": "view",
      "type": "function"
    },
    {
      "inputs": [
        {
          "internalType": "address",
          "name": "",
          "type": "address"
        }
      ],
      "name": "participants",
      "outputs": [
        {
          "internalType": "address",
          "name": "account",
          "type": "address"
        },
        {
          "internalType": "string",
          "name": "fullname",
          "type": "string"
        },
        {
          "internalType": "string",
          "name": "email",
          "type": "string"
        },
        {
          "internalType": "uint8",
          "name": "nSessions",
          "type": "uint8"
        },
        {
          "internalType": "uint256",
          "name": "deviation",
          "type": "uint256"
        }
      ],
      "stateMutability": "view",
      "type": "function"
    },
    {
      "inputs": [
        {
          "internalType": "address",
          "name": "session",
          "type": "address"
        }
      ],
      "name": "addSession",
      "outputs": [],
      "stateMutability": "nonpayable",
      "type": "function"
    },
    {
      "inputs": [
        {
          "internalType": "address",
          "name": "addr",
          "type": "address"
        }
      ],
      "name": "getDeviation",
      "outputs": [
        {
          "internalType": "uint256",
          "name": "deviation",
          "type": "uint256"
        }
      ],
      "stateMutability": "view",
      "type": "function"
    },
    {
      "inputs": [
        {
          "internalType": "address",
          "name": "participantAddr",
          "type": "address"
        },
        {
          "internalType": "uint256",
          "name": "currentPrice",
          "type": "uint256"
        },
        {
          "internalType": "uint256",
          "name": "finalPrice",
          "type": "uint256"
        }
      ],
      "name": "calculateDeviation",
      "outputs": [],
      "stateMutability": "nonpayable",
      "type": "function"
    }
  ],
  "bytecode": "0x608060405234801561001057600080fd5b506106e4806100206000396000f3fe608060405234801561001057600080fd5b506004361061007d5760003560e01c8063a3b9c9e51161005b578063a3b9c9e514610102578063b63bc3b414610132578063f390dd8614610150578063f851a4401461016c5761007d565b806309e69ede146100825780634ff61ad9146100b6578063a33a08b9146100d2575b600080fd5b61009c600480360381019061009791906103ac565b61018a565b6040516100ad9594939291906104da565b60405180910390f35b6100d060048036038101906100cb91906103d9565b6102fd565b005b6100ec60048036038101906100e791906103ac565b610302565b6040516100f9919061053b565b60405180910390f35b61011c6004803603810190610117919061042c565b610309565b60405161012991906104bf565b60405180910390f35b61013a610348565b6040516101479190610556565b60405180910390f35b61016a600480360381019061016591906103ac565b61035b565b005b61017461035e565b60405161018191906104bf565b60405180910390f35b60026020528060005260406000206000915090508060000160009054906101000a900473ffffffffffffffffffffffffffffffffffffffff16908060010180546101d390610609565b80601f01602080910402602001604051908101604052809291908181526020018280546101ff90610609565b801561024c5780601f106102215761010080835404028352916020019161024c565b820191906000526020600020905b81548152906001019060200180831161022f57829003601f168201915b50505050509080600201805461026190610609565b80601f016020809104026020016040519081016040528092919081815260200182805461028d90610609565b80156102da5780601f106102af576101008083540402835291602001916102da565b820191906000526020600020905b8154815290600101906020018083116102bd57829003601f168201915b5050505050908060030160009054906101000a900460ff16908060040154905085565b505050565b6000919050565b6001818154811061031957600080fd5b906000526020600020016000915054906101000a900473ffffffffffffffffffffffffffffffffffffffff1681565b600060149054906101000a900460ff1681565b50565b60008054906101000a900473ffffffffffffffffffffffffffffffffffffffff1681565b60008135905061039181610680565b92915050565b6000813590506103a681610697565b92915050565b6000602082840312156103c2576103c161066a565b5b60006103d084828501610382565b91505092915050565b6000806000606084860312156103f2576103f161066a565b5b600061040086828701610382565b935050602061041186828701610397565b925050604061042286828701610397565b9150509250925092565b6000602082840312156104425761044161066a565b5b600061045084828501610397565b91505092915050565b6104628161058d565b82525050565b600061047382610571565b61047d818561057c565b935061048d8185602086016105d6565b6104968161066f565b840191505092915050565b6104aa816105bf565b82525050565b6104b9816105c9565b82525050565b60006020820190506104d46000830184610459565b92915050565b600060a0820190506104ef6000830188610459565b81810360208301526105018187610468565b905081810360408301526105158186610468565b905061052460608301856104b0565b61053160808301846104a1565b9695505050505050565b600060208201905061055060008301846104a1565b92915050565b600060208201905061056b60008301846104b0565b92915050565b600081519050919050565b600082825260208201905092915050565b60006105988261059f565b9050919050565b600073ffffffffffffffffffffffffffffffffffffffff82169050919050565b6000819050919050565b600060ff82169050919050565b60005b838110156105f45780820151818401526020810190506105d9565b83811115610603576000848401525b50505050565b6000600282049050600182168061062157607f821691505b602082108114156106355761063461063b565b5b50919050565b7f4e487b7100000000000000000000000000000000000000000000000000000000600052602260045260246000fd5b600080fd5b6000601f19601f8301169050919050565b6106898161058d565b811461069457600080fd5b50565b6106a0816105bf565b81146106ab57600080fd5b5056fea2646970667358221220910d687911310a84dd76381ebb88b404cf31481951761b0b330f9b5c9d9f950664736f6c63430008070033",
  "immutableReferences": {},
  "source": "// SPDX-License-Identifier: GPL-3.0\npragma solidity >=0.7.0 <0.9.0;\n\n// Interface of Main contract to call from Session contract\ncontract MainSC {\n    struct IParticipant {\n        address account;\n        string fullname;\n        string email;\n        uint8 nSessions;\n        uint256 deviation; // %\n    }\n\n    address public admin;\n    uint8 public nParticipants;\n    address[] public iParticipants;\n    mapping(address => IParticipant) public participants;\n\n    function addSession(address session) public {}\n\n    function getDeviation(address addr)\n        external\n        view\n        returns (uint256 deviation)\n    {}\n\n    function calculateDeviation(\n        address participantAddr,\n        uint256 currentPrice,\n        uint256 finalPrice\n    ) public {}\n}\n\ncontract Session {\n    // Variable to hold Main Contract Address when create new Session Contract\n    address public mainContract;\n    int8 public nSessions;\n    // Variable to hold Main Contract instance to call functions from Main\n    MainSC MainContract;\n\n    // State Enum to define Session's state\n    enum State {\n        CREATED,\n        STARTED,\n        CLOSING,\n        CLOSED\n    }\n\n    struct IParticipant {\n        address account;\n        string fullname;\n        string email;\n        uint8 nSessions;\n        uint256 deviation; // %\n    }\n\n    // TODO: Variables\n    string public name;\n    string public description;\n    string public image;\n    address[] public participants;\n    mapping(address => uint256) public priceOfParticipants;\n    uint256 public proposedPrice;\n    uint256 public finalPrice;\n    address public admin;\n    State public state = State.CREATED;\n\n    // Necessary events\n    event ProposePrice(address from, uint256 value, uint256 proposedPrice);\n\n    constructor(\n        address _mainContract,\n        string memory _name,\n        string memory _description,\n        string memory _image\n    ) public {\n        // Get Main Contract instance\n        mainContract = _mainContract;\n        MainContract = MainSC(_mainContract);\n\n        // TODO: Init Session contract\n        name = _name;\n        description = _description;\n        image = _image;\n\n        // Call Main Contract function to link current contract.\n        MainContract.addSession(address(this));\n        admin = MainContract.admin();\n    }\n\n    modifier onlyAdmin() {\n        require(msg.sender == admin);\n        _;\n    }\n\n    modifier onlyInState(State _state) {\n        require(state == _state);\n        _;\n    }\n\n    // only Admin\n    function startSession() public onlyAdmin onlyInState(State.CREATED) {\n        state = State.STARTED;\n    }\n\n    function checkExist(address _addr) private view returns (bool) {\n        for (uint8 i = 0; i < participants.length; i++) {\n            if (participants[i] == _addr) {\n                return true;\n            }\n        }\n\n        return false;\n    }\n\n    // only by owner, the session is still opening\n    function proposePrice(uint256 _price) public onlyInState(State.STARTED) {\n        priceOfParticipants[msg.sender] = _price;\n\n        if (!checkExist(msg.sender)) {\n            participants.push(msg.sender);\n        }\n\n        uint256 totalPrice;\n        uint256 totalDeviation;\n\n        for (uint8 i = 0; i < participants.length; i++) {\n            address addr = participants[i];\n            totalPrice +=\n                priceOfParticipants[addr] *\n                (100 - MainContract.getDeviation(addr));\n            totalDeviation += MainContract.getDeviation(addr);\n        }\n\n        // calculate proposed price\n        proposedPrice =\n            totalPrice /\n            (100 * participants.length - totalDeviation);\n        emit ProposePrice(msg.sender, _price, proposedPrice);\n    }\n\n    // stop session, only by admin\n    function stopSession() public onlyAdmin onlyInState(State.STARTED) {\n        state = State.CLOSING;\n    }\n\n    // close session, only by admin\n    function closeSession(uint256 _finalPrice) public onlyAdmin {\n        require(_finalPrice > 0, \"Final price must be great than 0.\");\n\n        finalPrice = _finalPrice;\n\n        for (uint8 i = 0; i < participants.length; i++) {\n            address addr = participants[i];\n            MainContract.calculateDeviation(\n                addr,\n                priceOfParticipants[addr],\n                finalPrice\n            );\n        }\n\n        state = State.CLOSED;\n\n        // event\n    }\n\n    // only Admin\n    function updateProductInfo(\n        string memory _name,\n        string memory _description,\n        string memory _image\n    ) public onlyAdmin {\n        name = _name;\n        description = _description;\n        image = _image;\n    }\n}\n",
  "sourcePath": "/Users/minhphan/Desktop/FunixPricingChain/truffle/contracts/Session.sol",
  "compiler": {
    "name": "solc",
    "version": "0.8.7+commit.e28d00a7.Emscripten.clang"
  },
  "schemaVersion": "3.4.3",
  "updatedAt": "2022-03-31T17:33:01.827Z",
  "devdoc": {
    "kind": "dev",
    "methods": {},
    "version": 1
  },
  "userdoc": {
    "kind": "user",
    "methods": {},
    "version": 1
  }
}